:100000000C9434000C9451000C9451000C94510049
:100010000C9451000C9451000C9451000C9451001C
:100020000C9451000C9451000C9451000C9451000C
:100030000C9451000C9451000C945D000C945100F0
:100040000C9451000C9451000C9451000C945100EC
:100050000C9451000C9451000C9451000C945100DC
:100060000C9451000C94510011241FBECFEFD8E026
:10007000DEBFCDBF11E0A0E0B1E0E0E6FEE002C0EF
:1000800005900D92A434B107D9F711E0A4E4B1E0D2
:1000900001C01D92AD39B107E1F70E9460040C94D4
:1000A0002E070C94000082E084BD93E095BD99EF8B
:1000B00097BD80936E00789408951F920F920FB6AB
:1000C0000F9211248F939F93AF93BF93809144011C
:1000D00090914501A0914601B09147010196A11D63
:1000E000B11D8093440190934501A0934601B093C4
:1000F0004701BF91AF919F918F910F900FBE0F90CD
:100100001F901895882311F0299A01C02998289AE0
:10011000289808952A9A2A980895AF92BF92CF926C
:10012000DF92EF92FF920F931F93DF93CF93CDB7A0
:10013000DEB7A0970FB6F894DEBF0FBECDBF7C012F
:10014000DD245E010894A11CB11CCC24C3944EC0D4
:1001500080818C93818111968C9311978281129664
:100160008C9312979F5F33961396933089F72F5F86
:100170003F4F475F5F4F2330310579F0F90183E04E
:10018000EE0FFF1F8A95E1F7E20FF31FEE0DFF1D43
:10019000D501A40FB51F90E0DBCF1C8ED110CC8E03
:1001A0001D8E81E0D812CD8E1E8E92E0D912CE8E99
:1001B00000E011E090E0D801ED91FC91EA0DFB1D0B
:1001C0008081811191E0892F0E9482000E5F1F4F74
:1001D000B1E000341B0771F72A9A2A98D3948BE177
:1001E00090E0E80EF91E93E0D91629F020E030E007
:1001F00040E050E0C3CFA0960FB6F894DEBF0FBE2C
:10020000CDBFCF91DF911F910F91FF90EF90DF90C5
:10021000CF90BF90AF9008952F923F924F925F92F0
:100220006F927F928F929F92AF92BF92CF92DF9206
:10023000EF92FF920F931F93DF93CF93CDB7DEB76B
:10024000C255D0400FB6F894DEBF0FBECDBF639647
:100250008FAF6397892E00E010E08AE0282E312CC2
:100260002C0E3D1EBBE14B2E512C3E010894611C0F
:10027000711C9924939461C0928201C012821396DA
:100280003396EC15FD0501F18C91992787FD90952A
:100290000817190714F0108201C0908211968C91F2
:1002A0001197992787FD90950817190714F0118267
:1002B00001C0918212968C911297992787FD909593
:1002C00008171907CCF2DACF4F5F5F4FA9E0CA2EAB
:1002D000D12CCE0EDF1E4330510589F0CA01E3E078
:1002E000880F991FEA95E1F7840F951FD901A80F90
:1002F000B91FFC01EA0DFB1DE60DF71DC5CF6F5FB1
:100300007F4F8BE190E0E80EF91E255E3F4F633092
:10031000710559F0670140E050E0649D5001659D12
:10032000B00C749DB00C1124D9CFC3010E948D0074
:100330000F5F1F4F0031110549F0710163968FADBA
:100340006397982D9C0160E070E0E4CFCE5ADF4FB8
:100350000FB6F894DEBF0FBECDBFCF91DF911F91D6
:100360000F91FF90EF90DF90CF90BF90AF909F9054
:100370008F907F906F905F904F903F902F90089557
:1003800087E084B9089540E050E0ABE1B0E021C0DF
:100390001082118212820196339683309105C1F743
:1003A0002F5F3F4F2330310579F0F90193E0EE0FD5
:1003B000FF1F9A95E1F7E20FF31FE60FF71FE45BCB
:1003C000FE4F80E090E0E4CF4F5F5F4F4330510538
:1003D00051F020E030E04A9FB0014B9F700D5A9FD2
:1003E000700D1124E2CF08956F927F928F929F92A9
:1003F000AF92BF92DF92EF92FF920F931F93CF9332
:10040000DF93C0E0D0E03BE1632E712C4C01AA24C5
:10041000BB2491C0D082D382D68201963996833094
:100420009105C1F72F5F3F4F2330310571F0269DB5
:10043000F001279DF00D369DF00D1124EC0FFD1FEE
:10044000E45BFE4F80E090E0E5CF80914401909125
:100450004501A0914601B09147017C010027F7FCBE
:100460000095102F04C08CE491E00E940C01809153
:10047000440190914501A0914601B09147018E1928
:100480009F09A00BB10B88159905AA05BB0558F368
:10049000D39480E1D81619F42FE0D22E45C020E085
:1004A00030E0C5CFD082D382D68201963996833090
:1004B0009105C1F72F5F3F4F2330310571F0269D25
:1004C000F001279DF00D369DF00D1124EC0FFD1F5E
:1004D000E45BFE4F80E090E0E5CF80914401909195
:1004E0004501A0914601B09147017C010027F7FC2E
:1004F0000095102F04C08CE491E00E940C018091C3
:10050000440190914501A0914601B09147018E1997
:100510009F09A00BB10B88159905AA05BB0558F3D7
:10052000DA948FEFD81619F020E030E0C8CF21968A
:10053000C330D10511F0DD24B2CFDF91CF911F91EF
:100540000F91FF90EF90DF90BF90AF909F908F90B2
:100550007F906F9008954F925F927F928F929F92BB
:10056000AF92BF92CF92DF92EF92FF920F931F93C1
:10057000CF93DF93CC24DD24EBE14E2E512C772456
:1005800073944C01AA24BB2487C10E94C301C49D5B
:10059000F001C59DF00DD49DF00D1124EC0DFD1D55
:1005A000E45BFE4F80E090E0708273827682019679
:1005B000399683309105C1F78091440190914501AE
:1005C000A0914601B09147017C010027F7FC0095FE
:1005D000102F04C08CE491E00E948D0080914401B2
:1005E00090914501A0914601B09147018E199F0954
:1005F000A00BB10B88159905AA05BB0558F32196E8
:10060000C330D10511F6C1E0D0E00E94C301C49D02
:10061000F001C59DF00DD49DF00D1124EC0DFD1DD4
:10062000E45BFE4F80E090E07082738276820196F8
:10063000399683309105C1F780914401909145012D
:10064000A0914601B09147017C010027F7FC00957D
:10065000102F04C08CE491E00E948D008091440131
:1006600090914501A0914601B09147018E199F09D3
:10067000A00BB10B88159905AA05BB0558F3219766
:100680008FEFCF3FD80709F6C0E0D0E00E94C3014A
:10069000FE0173E0EE0FFF1F7A95E1F7EC0FFD1FEF
:1006A000EC0DFD1DE45BFE4F80E090E070827382F4
:1006B000768201967B9683309105C1F78091440143
:1006C00090914501A0914601B09147017C0100271E
:1006D000F7FC0095102F04C08CE491E00E948D007F
:1006E0008091440190914501A0914601B09147014C
:1006F0008E199F09A00BB10B88159905AA05BB059A
:1007000058F32196C330D10509F6C1E0D0E00E942C
:10071000C301FE0163E0EE0FFF1F6A95E1F7EC0FE6
:10072000FD1FEC0DFD1DE45BFE4F80E090E070824C
:100730007382768201967B9683309105C1F7809112
:10074000440190914501A0914601B09147017C017F
:100750000027F7FC0095102F04C08CE491E00E9464
:100760008D008091440190914501A0914601B09186
:1007700047018E199F09A00BB10B88159905AA0591
:10078000BB0558F321978FEFCF3FD80709F0BFCFB4
:10079000C0E0D0E00E94C301FE01EE0FFF1FEC0F8E
:1007A000FD1FEC0DFD1DE45BFE4F80E090E07082CC
:1007B0007186728A01967B9683309105C1F780918C
:1007C000440190914501A0914601B09147017C01FF
:1007D0000027F7FC0095102F04C08CE491E00E94E4
:1007E0008D008091440190914501A0914601B09106
:1007F00047018E199F09A00BB10B88159905AA0511
:10080000BB0558F32196C330D10521F6C1E0D0E0F5
:100810000E94C301FE01EE0FFF1FEC0FFD1FEC0D48
:10082000FD1DE45BFE4F80E090E070827186728A6D
:1008300001967B9683309105C1F780914401909198
:100840004501A0914601B09147017C010027F7FCCA
:100850000095102F04C08CE491E00E948D008091DF
:10086000440190914501A0914601B09147018E1934
:100870009F09A00BB10B88159905AA05BB0558F374
:1008800021978FEFCF3FD80719F60894C11CD11CD0
:1008900083E0C816D10419F0C0E0D0E076CEDF9135
:1008A000CF911F910F91FF90EF90DF90CF90BF906D
:1008B000AF909F908F907F905F904F900895089594
:1008C0001F9392E094BD83E085BD89EF87BD90932F
:1008D0006E00789487E084B9259A10E282E390E074
:1008E0000E94F4018091440190914501A09146013C
:1008F000B0914701209148013091490140914A014E
:1009000050914B01821B930BA40BB50B845F91405C
:10091000A040B04018F38091440190914501A0910E
:100920004601B09147018093480190934901A093FB
:100930004A01B0934B0185B1812785B9CFCF2F9262
:100940003F924F925F926F927F928F929F92AF925F
:10095000BF92CF92DF92EF92FF920F931F93DF939C
:10096000CF9300D000D0CDB7DEB78C017A836983F6
:100970000E94C3011C821B8218014424552472C0AA
:100980000E94CA0623E030E040E050E00E943A06B0
:100990003B014C010E94CA0623E030E040E050E0F9
:1009A0000E943A065B016C010E94CA0623E030E017
:1009B00040E050E00E943A067B018C010E94CA068A
:1009C00023E030E040E050E00E943A06F501B3E059
:1009D000EE0FFF1FBA95E1F7EA0DFB1D9701220FFD
:1009E000331F2E0D3F1DE20FF31F8BE190E0689E39
:1009F0009001699E300D789E300D1124E20FF31F97
:100A0000E45BFE4FE60FF71F90E08081882309F436
:100A100091E090838091440190914501A09146011D
:100A2000B09147017C010027F7FC0095102F04C00E
:100A30008CE491E00E948D008091440190914501E9
:100A4000A0914601B09147018E199F09A00BB10BEF
:100A500082159305A405B50558F3EB81FC81319609
:100A6000FC83EB832B813C8189819A81281739078C
:100A700008F486CF0F900F900F900F90CF91DF91D9
:100A80001F910F91FF90EF90DF90CF90BF90AF90AC
:100A90009F908F907F906F905F904F903F902F909E
:100AA00008952F923F924F925F926F927F928F9212
:100AB0009F92AF92BF92CF92DF92EF92FF920F93ED
:100AC0001F93DF93CF9300D000D0CDB7DEB78C015A
:100AD0001B010E94C30144245524980140E050E0CA
:100AE00029833A834B835C83AAC00E94CA0623E011
:100AF00030E040E050E00E943A063B014C010E9489
:100B0000CA0623E030E040E050E00E943A065B0174
:100B10006C010E94CA0623E030E040E050E00E94F1
:100B20003A067B018C010E94CA0623E030E040E0D7
:100B300050E00E943A06F50183E0EE0FFF1F8A9510
:100B4000E1F7EA0DFB1D9701220F331F2E0D3F1D0C
:100B5000E20FF31F4BE150E0649E9001659E300D63
:100B6000749E300D1124E20FF31FE45BFE4FE60F7D
:100B7000F71F8081882389F11FE0A12E6F01D60124
:100B8000AC928091440190914501A0914601B091B1
:100B900047017C010027F7FC0095102F04C08CE46E
:100BA00091E00E940C018091440190914501A09137
:100BB0004601B09147018E199F09A00BB10B298105
:100BC0003A814B815C8182179307A407B50738F3FC
:100BD000AA943FEFA31699F62FC0AA246F01D6015D
:100BE000AC928091440190914501A0914601B09151
:100BF00047017C010027F7FC0095102F04C08CE40E
:100C000091E00E940C018091440190914501A091D6
:100C10004601B09147018E199F09A00BB10B2981A4
:100C20003A814B815C8182179307A407B50738F39B
:100C3000A39430E1A31699F60894411C511C421468
:100C4000530408F452CF0F900F900F900F90CF9154
:100C5000DF911F910F91FF90EF90DF90CF90BF90A9
:100C6000AF909F908F907F906F905F904F903F904C
:100C70002F90089597FB092E05260ED057FD04D01E
:100C800014D00AD0001C38F4509540953095219529
:100C90003F4F4F4F5F4F0895F6F7909580957095B1
:100CA00061957F4F8F4F9F4F0895A1E21A2EAA1B87
:100CB000BB1BFD010DC0AA1FBB1FEE1FFF1FA2170C
:100CC000B307E407F50720F0A21BB30BE40BF50B09
:100CD000661F771F881F991F1A9469F76095709592
:100CE000809590959B01AC01BD01CF010895A0E0D6
:100CF000B0E0EDE7F6E00C94FF06EC01A880B980C7
:100D0000CA80DB80A114B104C104D10441F484E29F
:100D1000A82E89EDB82E8BE5C82E87E0D82EC60107
:100D2000B5012DE133EF41E050E00E943A0627EA99
:100D300031E440E050E00E94D8067B018C01C601FE
:100D4000B5012DE133EF41E050E00E943A06CA01BF
:100D5000B9012CEE34EF4FEF5FEF0E94D8066E0D15
:100D60007F1D801F911F97FF04C06150704080401D
:100D70009048688379838A839B839B01AC015F776A
:100D8000B901CA01CDB7DEB7EAE00C941B070E9497
:100D90007706089580E491E00E94770608956093B5
:100DA0004001709341018093420190934301089563
:100DB000629FD001739FF001829FE00DF11D649F3F
:100DC000E00DF11D929FF00D839FF00D749FF00DCB
:100DD000659FF00D9927729FB00DE11DF91F639F6C
:100DE000B00DE11DF91FBD01CF01112408952F920F
:100DF0003F924F925F926F927F928F929F92AF92AB
:100E0000BF92CF92DF92EF92FF920F931F93CF93F7
:100E1000DF93CDB7DEB7CA1BDB0B0FB6F894DEBF8E
:100E20000FBECDBF09942A88398848885F846E84B4
:100E30007D848C849B84AA84B984C884DF80EE80FE
:100E4000FD800C811B81AA81B981CE0FD11D0FB607
:100E5000F894DEBF0FBECDBFED010895F894FFCF2B
:100E600007000800050010000C0003001100190025
:100E70000E0016001A0018001700060004001500E6
:100E80000F000D000A000B00120000000900140002
:100E90001300020001001B001C001D001E001F00AB
:040EA000010000004D
:00000001FF
